:100000000C9435000C9452000C9452000C94520045
:100010000C9452000C9452000C9452000C94520018
:100020000C9452000C9452000C9452000C94520008
:100030000C9452000C9452000C9452000C945200F8
:100040000C9452000C9452000C9452000C945200E8
:100050000C9452001020408001020304050607089A
:10006000090A0B0C0D0E0F10000011241FBECFE566
:10007000D8E0DEBFCDBF10E0A0E6B0E0E2ECFBE0F0
:1000800002C005900D92AA3DB107D9F718E0AAED7C
:10009000B0E001C01D92A43FB107E1F70E94350115
:1000A0000C94DF050C94000008958091400190911C
:1000B000410161E00E9418040895FC0182E491E08E
:1000C000918380830E94BE030895FC018CEC92E032
:1000D000918380830E94BE030895FC0186E594E02D
:1000E000918380830E94BE030895FC0181E993E01F
:1000F000918380830E94BE030895FC0187E092E013
:10010000918380830E94BE0308952F923F924F9265
:100110005F926F927F928F929F92AF92BF92CF9297
:10012000DF92EF92FF920F931F93CF93DF9362E4DE
:10013000E62E61E0F62E0CE311E0C70160E0A801B5
:1001400020E030E00E94A00357E0452E52E0552EFB
:10015000C20161E0A80197010E94A00341E9242E99
:1001600043E0342EC10162E0A80197010E94A00380
:1001700036E5632E34E0732EC30163E0A8019701D6
:100180000E94A003CCECD2E0CE0164E0A801930170
:100190000E94A003C70160E670E04DE750E00E94B6
:1001A0007104C70167E670E045E750E00E94710402
:1001B000C7016EE670E04DE650E00E94710425E54F
:1001C000C22E20E0D22E05E710E0C201B801A60140
:1001D0000E94710494E5892E90E0992E8EE7A82E56
:1001E00080E0B82EC201B501A4010E947104C101D2
:1001F000B801A6010E947104C101B501A4010E94C9
:100200007104C301B801A6010E947104C30167E82B
:1002100070E045E650E00E947104CE016EE870E0A7
:100220004DE550E00E947104CE0160E670E04DE7BC
:1002300050E00E947104F0924101E0924001C70138
:100240000E94BE03DF91CF911F910F91FF90EF901D
:10025000DF90CF90BF90AF909F908F907F906F90E6
:100260005F904F903F902F9008950F931F9381E4DC
:100270000E94CE018FEF81BB82BB8CE391E062E4F0
:100280000E94650302E411E0C80160E04CE351E024
:1002900020E030E00E94A003C80160E670E045E580
:1002A00050E00E947104C80167E670E045E750E045
:1002B0000E947104C8016EE670E04DE650E00E94B5
:1002C000710487E092E061E04CE351E098010E9404
:1002D000A00387E092E068E970E045E550E00E9405
:1002E000710487E092E06CE970E044E550E00E9420
:1002F0007104C8010E94BE031093410100934001A4
:1003000084E661E40E94320282BB84E661E40E94DA
:100310003202883089F089301CF4843089F705C0B6
:100320008C3089F0803161F724C080914001909138
:1003300041010E944F04E4CF80914001909141011E
:100340000E945A04DDCFE0914001F0914101ED534C
:10035000FF4F80819181892B99F280E491E00E9486
:100360002E04809140019091410161E00E941804A7
:10037000C7CFE0914001F0914101ED53FF4F8081E3
:100380009181892B09F4BCCF2081318120934001D8
:1003900030934101C9010E94BE03B2CF823479F08B
:1003A000833418F48134C9F405C0833469F084348B
:1003B000A1F40FC080EF8ABB8FE08BBB089580EF64
:1003C00087BB8FE088BB089580EF84BB8FE085BB3F
:1003D000089580EF81BB8FE082BB0895823461F085
:1003E000833418F4813469F405C0833439F08434DB
:1003F00041F406C06BBB089568BB089565BB0895C2
:1004000062BB0895823469F0833418F4813429F48E
:1004100006C0833441F0843449F080EF089589B3F5
:1004200003C086B301C083B38F70089580B38F700B
:1004300008958B30910581F08C3091051CF407975D
:1004400079F40CC08D30910519F00E9749F402C073
:1004500082E0089581E0089583E0089584E008959E
:1004600080E00895CF92DF92EF92FF920F931F9357
:10047000CF93DF93062F8D3411F08D3691F4802FBA
:100480006FEE0E94EE0180EA9FE00197F1F7802F66
:100490000E940202992787FD90950E941902182F49
:1004A00037C0843421F0843611F010E031C010E000
:1004B000C4E0D0E041E0C42ED12C30EAE32E3FE08E
:1004C000F32EB6010C2E02C0660F771F0A94E2F7D6
:1004D0006095802F0E94EE01C7010197F1F7802FF0
:1004E0000E940202992787FD90950E941902882395
:1004F00059F0992787FD90950197880F991F880FCC
:10050000991F182F13501C0F2196C830D105C9F61A
:10051000812FDF91CF911F910F91FF90EF90DF908E
:10052000CF900895FC01623489F0633418F461348B
:1005300019F505C0633489F06434F1F415C08AE319
:1005400090E0918380838BE390E014C087E390E098
:100550009183808388E390E00DC084E390E09183F1
:10056000808385E390E006C081E390E091838083FF
:1005700082E390E0938382830190F081E02D8FEFFE
:1005800080830895DC011296ED91FC911397808190
:10059000816080831296ED91FC9113978081607F3A
:1005A0008F70862B80831296ED91FC91139780813A
:1005B0008E7F808381E08A95F1F70895FF920F93F3
:1005C0001F938C01F62EDC011296ED91FC9113978E
:1005D000808182608083607FC8010E94C202F294A1
:1005E00080EFF822C8016F2D0E94C2028DE08A952B
:1005F000F1F71F910F91FF900895FF920F931F93B2
:100600008C01F62EDC011296ED91FC9113978081FE
:100610008D7F8083607FC8010E94C202F29490EFB8
:10062000F922C8016F2D0E94C2028DE08A95F1F770
:100630001F910F91FF9008954295440F440F407C05
:10064000460F4068642F0E94FD0208951F93CF93C8
:10065000DF93EC01162F0E941C0305C0CE0160E25F
:100660000E94DE021F5F1031C8F3DF91CF911F910E
:100670000895CF92DF92EF92FF921F93CF93DF9373
:100680007C016B0110E00BC0103121F4C70160EC5C
:100690000E94FD02C70168810E94DE021F5FE60121
:1006A000C10FD11D8881882379F7DF91CF911F91E8
:1006B000FF90EF90DF90CF90089561E00E94FD02DF
:1006C00084EF91E00197F1F70895FF920F931F9344
:1006D0008C010E94920288E893E10197F1F7C8012A
:1006E00060E30E94C20282EE94E00197F1F7C80134
:1006F00060E30E94C20221E2F22E8F2D8A95F1F76B
:10070000C80160E30E94C2028F2D8A95F1F7C801EB
:1007100060E20E94C202FA94F1F7C80168E20E9406
:10072000FD02C8016CE00E94FD02C8010E945D0349
:10073000C80166E00E94FD021F910F91FF9008958D
:10074000FC016083E154FF4F119211924193519348
:1007500031832083E35CF04070E085EC90E0689F9B
:10076000D001699FB00D789FB00D1124A55EBA4FDE
:1007700085EC01900D928150E1F70895AF92BF9200
:10078000CF92DF92EF92FF920F931F93CF93DF935D
:10079000EC01CF53DF4F888199810E945D034A911C
:1007A000242F30E02F5F3F4F8A91CF5BD04090E005
:1007B0002817390714F0B42E02C0B42EB394F42EC7
:1007C000EE248E010F531F4F90ECC92ED12CCC0E6E
:1007D000DD1E83E1A82E1FC0F8018081918160E0B9
:1007E0004E2D0E941C03F6018081F81631F4F801A9
:1007F000808191816EE30E94DE02FA9CB001112497
:100800006F5F7F4F6C0F7D1FF801808191810E9487
:100810003903F394E394BF14F8F6DF91CF911F915D
:100820000F91FF90EF90DF90CF90BF90AF90089521
:10083000653048F485EC689FC0011124855E9A4FAD
:1008400011F00E94BE030895FC01ED53FF4F80811B
:100850009181009711F00E94BE030895CF93DF931A
:10086000EC01C054DF4F8881C05CD04090E023E1B0
:1008700030E0829FF001839FF00D929FF00D1124D4
:10088000EC0FFD1F0288F389E02D309729F0CE018F
:100890000995CE010E94BE03DF91CF910895FC011E
:1008A000E054FF4F2081222321F0215020830E9419
:1008B000BE030895FC01DC01A054BF4F4C91242FCE
:1008C00030E0E154FF4F8081EF5BF04090E0019712
:1008D000281739072CF44F5F4C93CF010E94BE03B9
:1008E0000895EF92FF920F931F93CF93DF938C01A4
:1008F0007A01EC01C154DF4F98819A30E8F483E12A
:10090000989FC00111240196800F911F40E150E093
:100910000E94D005888190E023E130E0829FF001C1
:10092000839FF00D929FF00D1124E00FF11FF38AC9
:10093000E28A88818F5F8883DF91CF911F910F9129
:10094000FF90EF900895DC01009759F0ED91FC9134
:10095000119784819581009721F08D939C9381E07C
:10096000089580E00895DC01009759F0ED91FC9125
:10097000119782819381009721F08D939C9381E060
:10098000089580E00895DC01009759F0ED91FC9105
:10099000119786819781009721F08D939C9381E038
:1009A000089580E00895DC01009759F0ED91FC91E5
:1009B000119780859185009721F08D939C9381E01C
:1009C000089580E008950F931F938C016EE271E00B
:1009D00080EA90E090932F0180932E01A0E2B1E095
:1009E000B0933301A0933201109231011092300183
:1009F0001092370110923601E3ECF4E0F0933901E4
:100A0000E093380123ED34E030933B0120933A0129
:100A100087EA90E0909321018093200182E191E0A8
:100A20009093250180932401709323016093220108
:100A30001092290110922801F0932B01E0932A01D2
:100A400030932D0120932C018EEA90E090931301B6
:100A5000809312011092170110921601B0931501A4
:100A6000A0931401109219011092180110921B0109
:100A700010921A01F0931D01E0931C0130931F01A5
:100A800020931E0144E051E085EB90E09093050136
:100A90008093040186EF90E0909309018093080110
:100AA000109207011092060110920B0110920A0198
:100AB00070930D0160930C01509335014093340104
:100AC00010920F0110920E0130931101209310012A
:100AD0008EEB90E09093F7008093F6001092FB006D
:100AE0001092FA005093F9004093F8001092FD0024
:100AF0001092FC007093FF006093FE0010920101C1
:100B000010920001309303012093020148EE50E05F
:100B100087EC90E09093E9008093E8008AED90E004
:100B20009093ED008093EC001092EB001092EA009D
:100B30001092EF001092EE00B093F100A093F0003D
:100B400050932701409326011092F3001092F20077
:100B50003093F5002093F40080ED90E09093DB005B
:100B60008093DA001092DF001092DE005093DD00D7
:100B70004093DC007093E1006093E000B093E300E9
:100B8000A093E200F093E500E093E4003093E700E7
:100B90002093E600F801718360831F910F910895FF
:100BA000FB01DC014150504048F001900D920020C3
:100BB000C9F701C01D9241505040E0F70895F894E4
:020BC000FFCF65
:100BC2004D656E752031004D656E752032004D65A4
:100BD2006E752033004F7074696F6E2031004F7054
:100BE20074696F6E20320052657475726E004D61C9
:100BF200696E204D656E7500536D3100536D320084
:100C02004D656E752031004D656E752032004D6563
:100C12006E752033004D656E7520315F31004D6574
:100C22006E7520315F32004D656E7520325F310086
:0A0C32004D656E7520325F32000040
:00000001FF
