:100000000C9435000C9452000C9452000C94520045
:100010000C9452000C9452000C9452000C94520018
:100020000C9452000C9452000C9452000C94520008
:100030000C9452000C9452000C9452000C945200F8
:100040000C9452000C9452000C9452000C945200E8
:100050000C9452001020408001020304050607089A
:10006000090A0B0C0D0E0F10000011241FBECFE566
:10007000D8E0DEBFCDBF10E0A0E6B0E0E2EEFBE0EE
:1000800002C005900D92AA3DB107D9F718E0AAED7C
:10009000B0E001C01D92A23FB107E1F70E94380114
:1000A0000C94EF050C94000008950895FC0180E481
:1000B00091E0918380830E94F0030895FC018AEC13
:1000C00092E0918380830E94F0030895FC0184E50F
:1000D00094E0918380830E94F0030895FC018FE8EF
:1000E00093E0918380830E94F0030895FC0185E0F2
:1000F00092E0918380830E94F00308952F923F92B3
:100100004F925F926F927F928F929F92AF92BF9227
:10011000CF92DF92EF92FF920F931F93DF93CF93D3
:1001200000D000D0CDB7DEB78E010F5F1F4FC801E2
:1001300062E40E947D0360E4C62E61E0D62EC60113
:1001400060E0A80120E030E00E94B80355E0452EB1
:1001500052E0552EC20161E0A80196010E94B80349
:100160004FE8242E43E0342EC10162E0A80196013D
:100170000E94B80334E5632E34E0732EC30163E0BC
:10018000A80196010E94B8038AEC92E064E0A801FD
:1001900093010E94B803C60160E670E046E750E0B4
:1001A0000E948104C60167E670E04EE650E00E94BE
:1001B0008104C6016EE670E046E650E00E948104CC
:1001C00024E5E22E20E0F22E05E710E0C201B8019E
:1001D000A7010E94810495E5892E90E0992E8EE773
:1001E000A82E80E0B82EC201B501A4010E948104AE
:1001F000C101B801A7010E948104C101B501A40198
:100200000E948104C301B801A7010E948104C301B7
:1002100067E870E04EE550E00E9481048AEC92E0CD
:100220006EE870E046E550E00E9481048AEC92E0BE
:1002300060E670E046E750E00E948104C6010E943B
:10024000F0030F900F900F900F90CF91DF911F91BF
:100250000F91FF90EF90DF90CF90BF90AF909F9065
:100260008F907F906F905F904F903F902F90089568
:10027000CF92DF92EF92FF920F931F93DF93CF9372
:10028000CDB7DEB728970FB6F894DEBF0FBECDBF4F
:1002900081E40E94E6018FEF81BB82BB8AED90E092
:1002A00062E40E947D0300E411E01A830983E3E025
:1002B000CE2ED12CCC0EDD1EC6010E94F30475E0BB
:1002C000E72EF12CEC0EFD1EC70162E40E947D03B7
:1002D000C80160E0A70120E030E00E94B803C80137
:1002E00060E670E046E750E00E948104C80167E6DE
:1002F00070E04EE650E00E948104C8016EE670E0B6
:1003000046E650E00E94810485E092E061E0A701AA
:1003100098010E94B80385E092E068E970E044E546
:1003200050E00E94810485E092E06CE970E045E5D0
:1003300050E00E948104C8010E94F0037E010894ED
:10034000E11CF11C0C2DCD2C84E661E40E944A02D4
:1003500082BB84E661E40E944A02883099F08930C9
:100360001CF4843089F705C08C30A9F0803161F726
:1003700016C089819A810E945F04802F9C2D0E9463
:10038000B304E2CF89819A810E946A04802F9C2D58
:100390000E94C304D9CFC7010E94D603D5CFE981FB
:1003A000FA81ED53FF4F80819181009769F29A8322
:1003B00089830E94F003EB81FC810484F585E02DA4
:1003C000309711F2802F9C2D0995BECF823479F0A1
:1003D000833418F48134C9F405C0833469F084345B
:1003E000A1F40FC080EF8ABB8FE08BBB089580EF34
:1003F00087BB8FE088BB089580EF84BB8FE085BB0F
:10040000089580EF81BB8FE082BB0895823461F054
:10041000833418F4813469F405C0833439F08434AA
:1004200041F406C06BBB089568BB089565BB089591
:1004300062BB0895823469F0833418F4813429F45E
:1004400006C0833441F0843449F080EF089589B3C5
:1004500003C086B301C083B38F70089580B38F70DB
:1004600008958B30910581F08C3091051CF407972D
:1004700079F40CC08D30910519F00E9749F402C043
:1004800082E0089581E0089583E0089584E008956E
:1004900080E00895CF92DF92EF92FF920F931F9327
:1004A000CF93DF93062F8D3411F08D3691F4802F8A
:1004B0006FEE0E94060280EA9FE00197F1F7802F1D
:1004C0000E941A02992787FD90950E943102182FE9
:1004D00037C0843421F0843611F010E031C010E0D0
:1004E000C4E0D0E041E0C42ED12C30EAE32E3FE05E
:1004F000F32EB6010C2E02C0660F771F0A94E2F7A6
:100500006095802F0E940602C7010197F1F7802FA6
:100510000E941A02992787FD90950E943102882334
:1005200059F0992787FD90950197880F991F880F9B
:10053000991F182F13501C0F2196C830D105C9F6EA
:10054000812FDF91CF911F910F91FF90EF90DF905E
:10055000CF900895FC01623489F0633418F461345B
:1005600019F505C0633489F06434F1F415C08AE3E9
:1005700090E0918380838BE390E014C087E390E068
:100580009183808388E390E00DC084E390E09183C1
:10059000808385E390E006C081E390E091838083CF
:1005A00082E390E0938382830190F081E02D8FEFCE
:1005B00080830895DC011296ED91FC911397808160
:1005C000816080831296ED91FC9113978081607F0A
:1005D0008F70862B80831296ED91FC91139780810A
:1005E0008E7F808381E08A95F1F70895FF920F93C3
:1005F0001F938C01F62EDC011296ED91FC9113975E
:10060000808182608083607FC8010E94DA02F29458
:1006100080EFF822C8016F2D0E94DA028DE08A95E2
:10062000F1F71F910F91FF900895FF920F931F9381
:100630008C01F62EDC011296ED91FC9113978081CE
:100640008D7F8083607FC8010E94DA02F29490EF70
:10065000F922C8016F2D0E94DA028DE08A95F1F728
:100660001F910F91FF9008954295440F440F407CD5
:10067000460F4068642F0E94150308951F93CF937F
:10068000DF93EC01162F0E94340305C0CE0160E217
:100690000E94F6021F5F1031C8F3DF91CF911F91C6
:1006A0000895CF92DF92EF92FF921F93CF93DF9343
:1006B0007C016B0110E00BC0103121F4C70160EC2C
:1006C0000E941503C70168810E94F6021F5FE601C0
:1006D000C10FD11D8881882379F7DF91CF911F91B8
:1006E000FF90EF90DF90CF90089561E00E94150396
:1006F00084EF91E00197F1F70895FF920F931F9314
:100700008C010E94AA0288E893E10197F1F7C801E1
:1007100060E30E94DA0282EE94E00197F1F7C801EB
:1007200060E30E94DA0221E2F22E8F2D8A95F1F722
:10073000C80160E30E94DA028F2D8A95F1F7C801A3
:1007400060E20E94DA02FA94F1F7C80168E20E94BE
:100750001503C8016CE00E941503C8010E947503CF
:10076000C80166E00E9415031F910F91FF90089544
:10077000FC016083E154FF4F119211924193519318
:1007800031832083E35CF04070E085EC90E0689F6B
:10079000D001699FB00D789FB00D1124A75EBA4FAC
:1007A00085EC01900D928150E1F70895DC01A05491
:1007B000BF4F8C91A05CB04090E023E130E0829F7D
:1007C000F001839FF00D929FF00D1124EA0FFB1FA3
:1007D0000288F389E02D309711F0CD010995089535
:1007E000AF92BF92CF92DF92EF92FF920F931F933F
:1007F000CF93DF93EC01CF53DF4F888199810E9423
:1008000075034A91242F30E02F5F3F4F8A91CF5BD1
:10081000D04090E02817390714F0B42E02C0B42E4F
:10082000B394F42EEE248E010F531F4F90ECC92E7B
:10083000D12CCC0EDD1E83E1A82E1FC0F8018081D3
:10084000918160E04E2D0E943403F6018081F816FC
:1008500031F4F801808191816EE30E94F602FA9CE6
:10086000B00111246F5F7F4F6C0F7D1FF8018081F5
:1008700091810E945103F394E394BF14F8F6DF9141
:10088000CF911F910F91FF90EF90DF90CF90BF908D
:10089000AF900895653040F485EC689FC001112445
:1008A000875E9A4F0E94F0030895FC01ED53FF4FBD
:1008B00080819181009711F00E94F0030895FC015E
:1008C000E054FF4F2081222321F0215020830E94F9
:1008D000F0030895FC01DC01A054BF4F4C91242F7C
:1008E00030E0E154FF4F8081EF5BF04090E00197F2
:1008F000281739072CF44F5F4C93CF010E94F00367
:100900000895EF92FF920F931F93CF93DF938C0183
:100910007A01EC01C154DF4F98819A30E8F483E109
:10092000989FC00111240196800F911F40E150E073
:100930000E94E005888190E023E130E0829FF00191
:10094000839FF00D929FF00D1124E00FF11FF38AA9
:10095000E28A88818F5F8883DF91CF911F910F9109
:10096000FF90EF900895DC01009759F0ED91FC9114
:10097000119784819581009721F08D939C9381E05C
:10098000089580E00895DC01009759F0ED91FC9105
:10099000119782819381009721F08D939C9381E040
:1009A000089580E00895DC01009759F0ED91FC91E5
:1009B000119786819781009721F08D939C9381E018
:1009C000089580E00895DC01009759F0ED91FC91C5
:1009D000119780859185009721F08D939C9381E0FC
:1009E000089580E008950F931F938C0162E371E0F6
:1009F00080EA90E09093330180933201A4E2B1E069
:100A0000B0933701A0933601109235011092340152
:100A100010923B0110923A01E3EDF4E0F0933D01B6
:100A2000E0933C0123EE34E030933F0120933E01FC
:100A300087EA90E0909325018093240186E191E07C
:100A400090932901809328017093270160932601D8
:100A500010922D0110922C01F0932F01E0932E01A2
:100A600030933101209330018EEA90E0909317018A
:100A70008093160110921B0110921A01B093190174
:100A8000A093180110921D0110921C0110921F01D9
:100A900010921E01F0932101E09320013093230175
:100AA0002093220148E051E085EB90E0909309010A
:100AB000809308018AEF90E090930D0180930C01E0
:100AC00010920B0110920A0110920F0110920E0168
:100AD00070931101609310015093390140933801D4
:100AE00010921301109212013093150120931401FA
:100AF0008EEB90E09093FB008093FA001092FF0041
:100B00001092FE005093FD004093FC0010920101F2
:100B1000109200017093030160930201109205018D
:100B20001092040130930701209306014CEE50E02F
:100B300087EC90E09093ED008093EC008EED90E0D8
:100B40009093F1008093F0001092EF001092EE006D
:100B50001092F3001092F200B093F500A093F4000D
:100B600050932B0140932A011092F7001092F60047
:100B70003093F9002093F80080ED90E09093DF002F
:100B80008093DE001092E3001092E2005093E100A7
:100B90004093E0007093E5006093E400B093E700B9
:100BA000A093E600F093E900E093E8003093EB00B7
:100BB0002093EA00F801718360831F910F910895DB
:100BC000FB01DC014150504048F001900D920020A3
:100BD000C9F701C01D9241505040E0F70895F894C4
:020BE000FFCF45
:100BE2004D656E752031004D656E752032004D6584
:100BF2006E752033004F7074696F6E2031004F7034
:100C020074696F6E20320052657475726E004D61A8
:100C1200696E204D656E7500536D3100536D320063
:100C22004D656E752031004D656E752032004D6543
:100C32006E752033004D656E7520315F31004D6554
:100C42006E7520315F32004D656E7520325F310066
:0A0C52004D656E7520325F32000020
:00000001FF
